:020000040800F2
:1000000000500020A12300081D2300081F23000822
:1000100021230008232300082523000800000000F6
:10002000000000000000000000000000272300087E
:1000300029230008000000002B2300082D230008BE
:10004000E9230008E9230008E9230008E923000860
:10005000E9230008E9230008E9230008E923000850
:10006000E9230008E9230008E923000831230008F8
:10007000E9230008E9230008E9230008E923000830
:10008000E9230008E92300083D230008E9230008CC
:10009000E9230008E9230008E9230008E923000810
:1000A000E9230008E9230008E9230008E923000800
:1000B00049230008E9230008E9230008E923000890
:1000C000E9230008E9230008E9230008E9230008E0
:1000D000E9230008E9230008E9230008E9230008D0
:1000E000E9230008E9230008E923000800000000D4
:1000F0000000000000000000000000000000000000
:0C01000000000000000000005FF808F1A3
:10010C0010B5054C237833B9044B13B10448AFF345
:10011C0000800123237010BD10000020000000009F
:10012C004424000808B5034B1BB103490348AFF343
:10013C00008008BD000000001400002044240008CA
:10014C0038B50E4B054618784FF47A73B3FBF0F3C1
:10015C000B4A1068B0FBF3F000F092FB044658B960
:10016C000F2D09D8024629464FF0FF3000F048FB0E
:10017C00044B20461D6038BD012038BD0000002016
:10018C000C00002004000020074A08B51368032067
:10019C0043F01003136000F021FB0020FFF7D0FFA9
:1001AC0001F0A8FF002008BD00200240034A044BC8
:1001BC0011681B780B441360704700BF3C00002093
:1001CC0000000020014B1868704700BF3C00002065
:1001DC00436A10B59A6A12F0500F1BD19A6A42F416
:1001EC0000729A621A68926802F46022B2F5602F6B
:1001FC000CD1DA6852B99A6A22F480729A629A6ABD
:10020C00D2045EBF9A6A42F001029A62184601F06B
:10021C0025FF10BD1B6ABDE810401B6B18477047CB
:10022C0008B5406AFFF7FBFF08BD7047036810B5BF
:10023C005A680446900627D51A68910724D5A26AF5
:10024C00D2065EBFA26A42F40072A2629A6802F4FD
:10025C006022B2F5602F10D1E26872B95A6822F0B0
:10026C0020025A60A36A23F48073A362A36ADB049E
:10027C005EBFA36A43F00103A362204601F0EEFEC9
:10028C006FF0120223681A6023685A68100630D582
:10029C001A6851072DD5A26AD2065EBFA26A42F433
:1002AC000052A2629A6802F4E042B2F5E04F0AD022
:1002BC005A68500516D49A6802F46022B2F5602F81
:1002CC0010D1E26872B95A6822F080025A60A36AAF
:1002DC0023F48053A362A36AD9055EBFA36A43F0DB
:1002EC000103A362204600F077FA6FF00C0223683A
:1002FC001A6023685A6852060DD51B68DB070AD5AD
:10030C00A36A204643F48033A362FFF78EFF6FF09D
:10031C00010223681A6010BD7047406A08B5836AF1
:10032C0043F040038362C36A43F00403C362FFF7E4
:10033C00F3FF08BD002373B5019390F82430012B13
:10034C0074D001234D6880F82430062D02684FEAE2
:10035C0085030C6825D82B441F25566B053B9D4007
:10036C0026EA050504FA03F32B435363092C4FEAE1
:10037C0044038D682FD907262344D1681E3B9E4029
:10038C0021EA060105FA03F30B43D360A4F1100331
:10039C00012B2BD90023002280F82420184602B010
:1003AC0070BD0C2D0BD82B441F25166B233B9D4089
:1003BC0026EA050504FA03F32B431363D6E72B4413
:1003CC001F25D66A413B9D4026EA050504FA03F336
:1003DC002B43D362CAE70726116923449E4021EAC6
:1003EC00060105FA03F30B431361CFE7104B9A4256
:1003FC0016D193681B02CDD49368102C43F40003E0
:10040C009360C7D10B4B0C4A1B68B3FBF2F20A2367
:10041C0053430193019B002BBCD0019B013BF8E79C
:10042C00836A43F0200383620123B4E70223B5E718
:10043C00002401400C00002040420F00002373B543
:10044C000193036804469A68D20702D5002002B0D3
:10045C0070BD9A6842F001029A60124B124A1B68F6
:10046C00B3FBF2F30193019BC3B9FFF7ABFE064656
:10047C0023689D6815F00105E8D1FFF7A3FE801BEA
:10048C000228F5D9A36A84F8245043F01003A36220
:10049C00E36A012043F00103E362D8E7019B013BCF
:1004AC00E0E700BF0C00002040420F0090F8243021
:1004BC0010B5012B044658D0012380F82430FFF7E7
:1004CC00BDFF00284DD1A36A294A23F4706323F0A1
:1004DC00010343F48073A3622368934204D125493A
:1004EC004A6812F4702F32D1A26A22F48012A262EE
:1004FC005A68520541BFA26A22F4405242F480521B
:10050C00A262A26A12F480521CBFE26A22F00602B6
:10051C00E262002284F824206FF002021A605A680A
:10052C0042F020025A609A6802F46022B2F5602F01
:10053C0013D10F4A934205D1A2F58062526812F48E
:10054C00702F0AD19A6842F4A0029A6010BDA26A78
:10055C0042F48012A2624A68CBE79A6842F4801295
:10056C00F3E7002384F8243010BD022010BD00BF37
:10057C0000280140002401402DE9D8419046404B11
:10058C00026804469A420F4602D03E498A4203D181
:10059C005B6813F4702F6ED194F82430012B6CD05F
:1005AC000123204684F82430FFF748FF0646002834
:1005BC005DD1A06A216820F47060324B20F00100FC
:1005CC0040F480709942A06204D12D4A536813F410
:1005DC00702F3ED1A36A23F48013A3624B685A0593
:1005EC0005D5A36A23F4405343F48053A362A36A52
:1005FC00206A13F4805318BFE36A3A4618BF23F0FD
:10060C000603E362002384F824301F4B4C318362D1
:10061C001E4BC3621E4B03636FF0020341F84C3C4C
:10062C0051F8443C43F4807341F8443C434600F099
:10063C006DF923689A6802F46022B2F5602F9A680B
:10064C000CBF42F4A00242F480129A603046BDE81E
:10065C00D881A36A43F48013A36253685B0541BF3E
:10066C00A06A20F4405040F48050A062BFE7002301
:10067C0084F82430EAE70126E8E70226E6E700BF23
:10068C000024014000280140DD0100082D02000873
:10069C002703000838B5036804469A68D20701D4CA
:1006AC00002038BD9A6822F001029A60FFF78AFD9B
:1006BC00054623689B68DB07F2D5FFF783FD401BDB
:1006CC000228F6D9A36A012043F01003A362E36A5F
:1006DC0043F00103E36238BD70B50446002871D0C5
:1006EC00836A23B9C36280F8243001F025FD2046CB
:1006FC00FFF7D0FFA36A13F0100FA36A64D1002890
:10070C0062D1E16923F48853626823F0020343F059
:10071C0002030A43A168A362E368B1F5807F42EA51
:10072C00430238D0012914BF06464FF48076656920
:10073C00012D07D1002B30D1A369013B46EA43358B
:10074C0045F400662368B1F5807F5D6825F4694542
:10075C0045EA06055D609E681D4D05EA060545EAFD
:10076C0002059D6001D0012920D1216901390905BB
:10077C00DD6A25F470052943D9629968154B0B4045
:10078C009A4215D10023E362A36A23F0030343F0DA
:10079C000103A36270BD0E46C9E7A36A43F02003B0
:1007AC00A362E36A43F00103E362CBE70021DFE7D6
:1007BC00A36A23F0120343F01003A362E36A43F02D
:1007CC000103E362012070BD43F01003A362F9E75B
:1007DC00FDF7E1FFFE0E1FFF70470000074A000205
:1007EC00D36800F4E06023F4E0631B041B0C43F0BB
:1007FC00BF6343F400330343D360704700ED00E064
:10080C00174B30B5DC68C4F30224C4F10703251D73
:10081C00042B28BF0423062D4FF0010598BF00249C
:10082C0005FA03F303F1FF3388BF033C1940A140E1
:10083C0005FA04F4013C2240002842EA01024FEA86
:10084C000212AFBF00F16040064B00F00F00D2B2B5
:10085C00A5BFD2B200F561401A5480F8002330BD18
:10086C0000ED00E014ED00E00123420900F01F0050
:10087C0003FA00F0014B43F82200704700E100E05E
:10088C000138B0F1807F0AD2F021064B064A58603D
:10089C0082F823100020072298601A60704701200C
:1008AC00704700BF10E000E000ED00E010B530B381
:1008BC0014220168134B84680B44B3FBF2F39B00C6
:1008CC000364114B0A68C363436822F47F522343C9
:1008DC00C46822F030022343046923434469234350
:1008EC0084692343C469234313430B60012200230F
:1008FC0080F82120836380F82030184610BD012039
:10090C0010BD00BFF8FFFDBF00000240F0B590F82D
:10091C002040012C35D0012490F8215080F8204043
:10092C00A5424FF000064FF0020428D180F8214078
:10093C00046886632668076C26F001062660C66B81
:10094C00BD407560636043680568102BC36A0BBFBC
:10095C00A260A160E160E2604BB1236843F00E033A
:10096C0023602B68002043F001032B60F0BD23684B
:10097C0023F004032360236843F00A03F0E780F8B4
:10098C0020600220F0BD000070B40425C66B026C20
:10099C003468036895402542196832D04D0730D52C
:1009AC001A6896065EBF1A6822F004021A603E4A64
:1009BC00934219D01432934218D01432934217D068
:1009CC001432934217D01432934217D014329342FC
:1009DC000CBF4FF480034FF08063344A5360C36AFA
:1009EC00002B5ED070BC18470423F6E74023F4E7D5
:1009FC004FF48063F1E74FF48043EEE74FF480232C
:100A0C00EBE702259540254235D08D0733D51A6882
:100A1C00940606D41A6822F00A021A60012280F8A1
:100A2C002120214A934219D01432934218D0143207
:100A3C00934217D01432934217D01432934217D0EA
:100A4C00143293420CBF4FF400134FF00073174A4B
:100A5C005360002380F82030836AC1E70223F6E755
:100A6C002023F4E74FF40073F1E74FF40053EEE763
:100A7C004FF40033EBE708259540254211D00907C8
:100A8C000FD5196821F00E011960012303FA02F247
:100A9C007260836380F82130002380F82030036B70
:100AAC009EE770BC704700BF080002400000024087
:100ABC002DE9F74F00221646654BDFF8A4E1DFF86D
:100ACC00A4C14FF001080C6808FA06F808EA0404FF
:100ADC00A0457FD14D68122D00F0AF8000F28880C8
:100AEC00022D00F0A7807CD8002D00F08E80012D07
:100AFC0000F09E804FF00F09FF2C93BF824606F149
:100B0C008045083DD0F800B092BFB500D0F804B0D5
:100B1C00AD0009FA05F82BEA080802FA05F588BFBA
:100B2C0000F1040A48EA0505CAF80050D1F804A0FF
:100B3C001AF0805F4ED0474D464FAD6926F0030842
:100B4C0045F00105BD61BD6908F1804805F001055E
:100B5C00019508F5803806F0030B019D4FEA8B0BCD
:100B6C00D8F8085009FA0BF925EA09093A4DA842B8
:100B7C0068D005F58065A84266D005F58065A84269
:100B8C0064D005F58065A8420CBF0325042505FA41
:100B9C000BF545EA0905C8F808501D681AF4803FA2
:100BAC0014BF2543A5431D605D681AF4003F14BFB4
:100BBC002543A5435D609D681AF4801F14BF25432F
:100BCC00A5439D60DD681AF4001F14BF2C4325EA71
:100BDC000404DC600136102E7FF473AF03B0BDE863
:100BEC00F08F032D22D0112D84D1CA68043281E7F5
:100BFC001A4FBD4209D012D8DFF86C904D4504D085
:100C0C0009F580394D457FF475AF8A68C2B1012A68
:100C1C000CBFC0F81080C0F8148008226AE7754534
:100C2C00F3D06545F1D0DFF84490EBE7002261E7A3
:100C3C00CA685FE7CA6808325CE7CA680C3259E7D1
:100C4C00042257E70025A2E70125A0E702259EE72D
:100C5C000004014000100240000801400000211077
:100C6C0000003110000032100000111000002210A2
:100C7C000AB1016170470904FBE7C3685940C160C0
:100C8C007047000003682DE9F341DB07054610D4DB
:100C9C002B689F075ED42B68190700F195802B6891
:100CAC005A0700F1BF80EA69002A40F02D8100202C
:100CBC0014E0904C636803F00C03042B07D06368BA
:100CCC0003F00C03082B0CD16368DE0309D52368F1
:100CDC009C03DDD56B68002BDAD1012002B0BDE896
:100CEC00F0816B68B3F5803F10D1236843F48033F7
:100CFC002360FFF767FA064623689803C8D4FFF70A
:100D0C0061FA801B6428F7D90320E7E79BB92368B5
:100D1C0023F480332360236823F480232360FFF7BC
:100D2C0051FA064623689903B2D5FFF74BFA801B9C
:100D3C006428F7D9E8E7B3F5A02F236803D143F46F
:100D4C0080232360D1E723F480332360236823F4CA
:100D5C008023CDE7674C636813F00C0F07D06368F2
:100D6C0003F00C03082B10D16368DA030DD423684D
:100D7C009B0702D52B69012BAFD123686A6923F03D
:100D8C00F80343EAC203236085E72A695A4B6AB128
:100D9C0001221A60FFF716FA064623689F07ECD467
:100DAC00FFF710FA801B0228F7D9ADE71A60FFF79E
:100DBC0009FA0646236898077FF56DAFFFF702FA2C
:100DCC00801B0228F6D99FE7AA694A4C4B4BDAB133
:100DDC0001221A60FFF7F6F90646636A9B070DD5E8
:100DEC004FF4FA52464B1B68B3FBF2F3019300BF6E
:100DFC00019B5A1E0192002BF9D150E7FFF7E2F943
:100E0C00801B0228E9D97FE71A60FFF7DBF9064659
:100E1C00636A9F077FF543AFFFF7D4F9801B022865
:100E2C00F6D971E7334CE369D80024D40127E36980
:100E3C0043F08053E361E36903F080530093009B1C
:100E4C00304E3368D90518D5EB68012B26D1236AAF
:100E5C0043F001032362FFF7B5F941F2883680466F
:100E6C00236A9B073FD5002F3FF41DAFE36923F0A6
:100E7C008053E36117E70027E2E7336843F480739C
:100E8C003360FFF79FF980463368DA05DCD4FFF74F
:100E9C0099F9A0EB08006428F6D935E7ABB9236AB9
:100EAC0041F2883823F001032362236A23F0040300
:100EBC002362FFF787F90646236A9807D3D5FFF715
:100ECC0081F9801B4045F7D91EE7052B236A03D116
:100EDC0043F004032362BAE723F001032362236A7D
:100EEC0023F00403B6E7FFF76DF9A0EB0800B0425E
:100EFC00B6D909E700100240000042428004424289
:100F0C000C00002000700040224C636803F00C03BE
:100F1C00082B3FF4E2AE00231F4E022A33602BD184
:100F2C00FFF750F90746236899011FD42B6AB3F5D4
:100F3C00803F05D16268A96822F400320A436260DE
:100F4C00696A62680B4322F47412134363600123D1
:100F5C003360FFF737F9054623689A013FF5A7AED2
:100F6C00FFF730F9401B0228F6D9CDE6FFF72AF936
:100F7C00C01B0228D7D9C7E6FFF724F9054623681A
:100F8C009B017FF594AEFFF71DF9401B0228F6D9A3
:100F9C00BAE600BF001002406000424230B5194B67
:100FAC0087B002AC03F11005224618685968083363
:100FBC0003C2AB421446F7D101238DF8043002234F
:100FCC0011498DF805304B6803F00C02082A17D133
:100FDC00C3F3834206A80244DB0312F8102C0CD591
:100FEC004B680A48C3F34043504306AA134413F812
:100FFC00143CB0FBF3F007B030BD05485043FAE7A2
:10100C000248F8E75C2400080010024000127A0045
:10101C0000093D00544A2DE9F0411368054603F0E0
:10102C0007038B420E462AD329688C0734D4CA078F
:10103C0047D44D4A136803F007039E42C0F08280E8
:10104C002A684A4C12F0040F40F08780130706D52B
:10105C0063682A6923F4605343EAC2036360FFF7B1
:10106C009DFF6368424AC3F30313D35CD840414BE2
:10107C0018600020FFF764F80020BDE8F0811368C9
:10108C0023F007030B431360136803F00703994223
:10109C00CAD00120BDE8F081344B11F0040F1EBF03
:1010AC005A6842F4E0625A60080742BF5A6842F438
:1010BC0060525A605A68A86822F0F00202435A60E3
:1010CC00B5E76A68294C012A23681CD113F4003F48
:1010DC00DFD0636841F2883823F003031343636065
:1010EC00FFF770F86B680746012B14D1636803F0A7
:1010FC000C03042B9DD0FFF765F8C01B4045F5D9B8
:10110C000320BDE8F081022A02D113F0007FDFE753
:10111C0013F0020FDCE7022B0FD1636803F00C0312
:10112C00082B86D0FFF74EF8C01B4045F5D9E7E7F2
:10113C00FFF748F8C01B4045E2D8636813F00C0F6A
:10114C00F6D176E7136823F0070333431360136873
:10115C0003F007039E429CD172E76368E96823F4AD
:10116C00E0630B43636071E7002002400010024013
:10117C006C2400080C000020044B054A5B68C3F388
:10118C000223D35C034A1068D84070470010024019
:10119C007C2400080C000020044B054A5B68C3F358
:1011AC00C223D35C034A1068D84070470010024039
:1011BC007C2400080C00002003682DE9F341D907BA
:1011CC00054620D5354CE369DA0032D40127E369B2
:1011DC0043F08053E361E36903F080530193019B77
:1011EC002F4E3368DB0526D5236A13F4407336D1B2
:1011FC00236A6A6823F44073134323621FB1E369C3
:10120C0023F08053E3612868830706D5234AA96835
:10121C00536823F440430B43536010F010001BD071
:10122C001E4AE9685368002023F480030B43536083
:10123C0012E00027D4E7336843F480733360FEF781
:10124C00C1FF80463368D805CED4FEF7BBFFA0EBB8
:10125C0008006428F6D9032002B0BDE8F0816A6862
:10126C0002F440729342C3D001200E4A236A1060EC
:10127C00002023F4407110602162D907B8D5FEF725
:10128C00A1FF41F288380646236A9A07B0D4FEF7CC
:10129C0099FF801B4045F7D9DDE700BF00100240E5
:1012AC000070004040044242036A70B523F0010311
:1012BC000362036A446882690D6822F073022A4350
:1012CC008D6823F002032B430A4DA8420BD1CD6845
:1012DC0023F008032B438E694D6924F44074354385
:1012EC0023F004032C43446082614A684263036226
:1012FC0070BD00BF002C0140036A70B523F48073ED
:10130C000362036A4468C2690D6822F073022A43BF
:10131C008D6823F4007343EA05230B4DA8420DD1CD
:10132C00CD6823F4006343EA05238E694D6924F4E8
:10133C004054354323F4806344EA05144460C2618D
:10134C004A68C263036270BD002C0140036A30B569
:10135C0023F480530362036A4468C2690D6822F463
:10136C00E64242EA05228D6823F4005343EA053332
:10137C00064DA84202BF4D6924F4804444EA85140A
:10138C004460C2614A680264036230BD002C0140B3
:10139C0003680020DA6842F00102DA601A6842F051
:1013AC0001021A607047704790F83C3070B5012B01
:1013BC004FF002031CD0012280F83D30036880F806
:1013CC003C209A6822F47F4222F077029A600A68E5
:1013DC00402A79D019D8102A00F093800AD8002A14
:1013EC0000F08980012380F83D30002380F83C30E8
:1013FC00184670BD202A00F08A80302AF2D19A68F3
:10140C0022F0700242F0370236E0702A36D01BD838
:10141C00502A42D0602AE5D11C6A4D6824F0100491
:10142C00CE681C6299691A6A21F4704122F0A002FC
:10143C0042EA051241EA063199611A629A6822F071
:10144C00700242F0670217E0B2F5805F11D0B2F57E
:10145C00005FC7D18A684D689C68C9682A4324F428
:10146C007F4442EA012222439A609A6842F4804205
:10147C0002E09A6822F007029A60B3E78A684D6826
:10148C009C68C9682A4324F47F4442EA012222431F
:10149C009A609A6842F07702EEE74C68CE68196A57
:1014AC001D6A21F00A0125F001051D629A6921438C
:1014BC0022F0F00242EA06129A6119629A6822F04E
:1014CC00700242F05702D7E74C68CE68196A1D6A61
:1014DC0021F00A0125F001051D629A69214322F0D1
:1014EC00F00242EA06129A6119629A6822F07002BE
:1014FC0042F04702C0E79A6822F0700242F00702FD
:10150C00BAE79A6822F0700242F01702B4E79A68C0
:10151C0022F0700242F02702AEE770477047704726
:10152C007047036810B51A69044691070ED5DA683E
:10153C0092070BD56FF002021A6101229B690277A8
:10154C009B0777D0FFF7EAFF0023237723681A69FC
:10155C00500710D5DA6851070DD56FF004021A61E7
:10156C0002229B69227713F4407F204668D0FFF754
:10157C00D5FF0023237723681A6912070FD5DA6881
:10158C0010070CD56FF008021A610422DB69227770
:10159C00990720465AD0FFF7C1FF00232377236811
:1015AC001A69D20610D5DA68D0060DD56FF0100284
:1015BC001A610822DB69227713F4407F20464BD056
:1015CC00FFF7ACFF0023237723681A69D10708D5EE
:1015DC00DA68D20705D56FF0010220461A6100F0D7
:1015EC004BFD23681A69100608D5DA68110605D573
:1015FC006FF0800220461A6100F09BF923681A698B
:10160C00520608D5DA68500605D56FF04002204620
:10161C001A61FFF785FF23681A69910622D5DA68EB
:10162C0092061FD56FF020022046BDE810401A61CB
:10163C0000F07EB9FFF771FF2046FFF770FF83E7DC
:10164C00FFF76BFF2046FFF76AFF92E7FFF765FF96
:10165C002046FFF764FFA0E7FFF75FFF2046FFF788
:10166C005EFFAFE710BD00001A4A036890420AD033
:10167C00B0F1804F07D0A2F59432904203D002F51E
:10168C008062904215D14A6823F070031343114ACB
:10169C0090420AD0B0F1804F07D0A2F5943290421C
:1016AC0003D002F58062904203D1CA6823F44073E0
:1016BC0013434A6923F08003134303608B68C362AE
:1016CC000B688362034B984204BF0B6903630123CD
:1016DC0043617047002C014010B50446A0B190F84E
:1016EC003D3003F0FF021BB980F83C2000F078FD80
:1016FC000223206884F83D30211DFFF7B5FF01233C
:10170C00002084F83D3010BD012010BD10B50446FA
:10171C00A0B190F83D3003F0FF021BB980F83C20DB
:10172C00FFF741FE0223206884F83D30211DFFF7AE
:10173C009BFF0123002084F83D3010BD012010BD1B
:10174C00036A70B523F010030362036A446882696C
:10175C000D6822F4E64242EA05228D6823F020034C
:10176C0043EA05130B4DA8420DD1CD6823F080033D
:10177C0043EA05138E694D6924F44064354323F024
:10178C00400344EA8504446082614A6882630362D0
:10179C0070BD00BF002C014038B590F83C300446B9
:1017AC00012B4FF0020025D0012384F83D0084F872
:1017BC003C300C2A18D8DFE802F0071717171E1751
:1017CC0017172F17171740002068FFF76DFD2368B8
:1017DC0009699A6942F008029A619A6922F0040236
:1017EC009A619A690A439A610123002084F83D307A
:1017FC0084F83C0038BD2068FFF7A2FF2368096914
:10180C009A6942F400629A619A6922F480629A6140
:10181C009A6942EA0122E6E72068FFF76DFD23682A
:10182C000969DA6942F00802DA61DA6922F0040225
:10183C00DA61DA690A43DA61D6E72068FFF786FDD8
:10184C0023680969DA6942F40062DA61DA6922F420
:10185C008062DA61DA6942EA0122ECE710B5012410
:10186C00036A8C4023EA04030362036A8A401A4326
:10187C00026210BD10B5044601220068FFF7EEFFAE
:10188C002368064A0020934202BF5A6C42F400427D
:10189C005A641A6842F001021A6010BD002C014013
:1018AC0090F83C30012B1FD0CB688A6823F440732E
:1018BC0013434A6823F4806313430A6823F40063D8
:1018CC0013430A6923F4805313434A6923F40053E6
:1018DC0013438A6923F4404313430268536400237F
:1018EC0080F83C30184670470220704790F83C3026
:1018FC0010B5012B4FF0020318D080F83D3003686F
:10190C000C685A68496822F070025A605A6822437F
:10191C005A609A6822F080029A609A680A439A6028
:10192C00012380F83D30002380F83C30184610BD70
:10193C00704770472DE9F0470568C2682B6901694B
:10194C0023F4405313432B618368EA680B434169CA
:10195C0022F4B05222F00C020B431343EB606B6980
:10196C00826923F4407313436B61404B81469D4263
:10197C004FF0190446D1FFF70FFC04FB00F3D9F824
:10198C0004604FF06408B600B3FBF6F3B3FBF8F356
:10199C001E01FFF701FC6043D9F804309B00B0FB3B
:1019AC00F3F7FFF7F9FB6043D9F804309B00B0FB69
:1019BC00F3F3B3FBF8F308FB13731B013233B3FBE4
:1019CC00F8F303F0F007FFF7E7FB6043D9F80420C6
:1019DC009200B0FBF2FAFFF7DFFB6043D9F804305A
:1019EC009B00B0FBF3F3B3FBF8F308FB13A31B0151
:1019FC003233B3FBF8F303F00F033B433344AB60D8
:101A0C00BDE8F087FFF7B8FB04FB00F3D9F80460DE
:101A1C004FF06408B600B3FBF6F3B3FBF8F31E010A
:101A2C00FFF7AAFB6043D9F804309B00B0FBF3F737
:101A3C00FFF7A2FB6043D9F804309B00B0FBF3F333
:101A4C00B3FBF8F308FB13731B013233B3FBF8F34E
:101A5C0003F0F007FFF790FB6043D9F804209200E5
:101A6C00B0FBF2FAFFF788FBB7E700BF0038014084
:101A7C0010B5044640B390F8393003F0FF021BB99F
:101A8C0080F8382000F002FC2423226884F83930D6
:101A9C00D368204623F40053D360FFF74BFF236831
:101AAC0000201A6922F490421A615A6922F02A0223
:101ABC005A61DA6842F40052DA602023E06384F859
:101ACC00393084F83A3010BD012010BD282210B5F1
:101ADC0094B00DEB0200002100F0A6FC14220021B2
:101AEC000DEB020000F0A0FC0021102201A800F078
:101AFC009BFC4FF48033022401220B9312934FF47E
:101B0C00E0130AA80A920E9213931194FFF7BAF8F5
:101B1C000F234FF4806205930023214605A80793F9
:101B2C00089209930694FFF775FA4FF4004301A845
:101B3C0001940393FFF740FB14B010BD38B53E4B36
:101B4C001A78032A76D8DFE802F00235456A3B4959
:101B5C003B4B0C4618880A8880B292B29042394AA4
:101B6C000CD20888118880B289B2884206D900222A
:101B7C00354B1A600022354B1A8038BD18882188E5
:101B8C0080B289B2884207D91888118880B289B28C
:101B9C00884201D90222EBE71088218880B289B2F1
:101BAC008842E7D912881B8892B29BB29A42E1D93B
:101BBC000322DDE70123264840F6C31403700023FB
:101BCC00214A244913600A8892B2A24232D9037086
:101BDC000B8038BD204C23889BB2B3F57A7F29D378
:101BEC0000254FF400511D482580FFF746F8164B91
:101BFC001A6822B901221A600023238038BD012AF9
:101C0C0001D10222F7E7022A01D10322F3E7032ACA
:101C1C0001D10422EFE7042A08BF1D60ECE7042180
:101C2C00094A1160094A118841F28732914284BFF6
:101C3C0000221A7038BD00BF0800002042000020AE
:101C4C0094010020440000202C00002032000020D1
:101C5C003400002036000020380000200010014025
:101C6C0008B52B4B1B68042B50D8DFE803F0031787
:101C7C003139410000224FF480512648FEF7F8FF1D
:101C8C0001224FF400512348FEF7F2FF01224FF4DA
:101C9C0080612048FEF7ECFF002212E001224FF495
:101CAC0080511C48FEF7E4FF00224FF40051194804
:101CBC00FEF7DEFF00224FF480611648FEF7D8FFD6
:101CCC000122BDE808404FF400611248FEF7D0BF76
:101CDC0001224FF480510F48FEF7CAFF0022D0E7D3
:101CEC0000224FF480510B48FEF7C2FF0122DCE7C3
:101CFC0000224FF480510748FEF7BAFF00224FF440
:101D0C0000510448FEF7B4FF0022C0E708BD00BF35
:101D1C002C000020000C01402DE98048B84D9BB0F0
:101D2C00FEF732FAFFF7D2FE1022002113A800F0C2
:101D3C007BFBAB69002443F01003AB614FF001084F
:101D4C004FF002094FF40056AB69002203F0100368
:101D5C000293029BAB694FF4005143F02003AB613B
:101D6C00AB69A84803F020030393039BAB6940F6CF
:101D7C000F6B43F00403AB61AB694FF4805A03F073
:101D8C0004030493049BAB699F4F43F00803AB61BE
:101D9C00AB6903F008030593059BFEF769FF00226E
:101DAC00C0219A48FEF764FF00224FF47051984806
:101DBC00FEF75EFF13A993481396CDF85080159447
:101DCC00CDF85890FEF774FEC02313A98F481393D7
:101DDC00CDF850801594CDF85890FEF769FE4FF46D
:101DEC00705313A98A481393CDF850801594CDF8ED
:101DFC005890FEF75DFE4FF4006313A983481393CC
:101E0C0014941594FEF754FE302313A980481393B1
:101E1C0014941594FEF74CFE6B69224643EA0803B2
:101E2C006B616B69214603EA080301930B20019B4C
:101E3C00FEF7E6FC0B20FEF717FD2146102208A842
:101E4C0000F0F2FA21461C220CA8724D069407945D
:101E5C0000F0EAFA1C22214613A800F0E5FA6E4BBA
:101E6C00284685E80801AC602C616C61AC61C5F852
:101E7C000CB0FFF731FC08A92846CDF820A0FFF7DD
:101E8C0093FA2846FFF742FC06A9284606940794C5
:101E9C00FFF72CFD602322460CA928460C930D94C9
:101EAC000E940F94109411941294FFF775FC042265
:101EBC000CA92846FFF770FC13A928461394149418
:101ECC0015941694179418961994FFF7E9FC284664
:101EDC0000F0B4F92146102213A800F0A5FA4FF037
:101EEC00804248F69F43384687E80C000C940D94CA
:101EFC00BC60C7F80C803C61BC61FFF7EDFB13A91B
:101F0C003846CDF84CA0FFF74FFA0CA93846434E93
:101F1C000C940D94FFF7EAFC414B4FF0040A33602C
:101F2C004FF48073B3604FF46023304613941494D1
:101F3C001594F4607461F3617460C6F810A0FEF738
:101F4C00CBFB062313A9304615931394CDF8508080
:101F5C00FEF7F0F9CDF84C804FF0030813A930468A
:101F6C00CDF85090FEF7E6F913A93046CDF84C9019
:101F7C00CDF85080FEF7DEF913A93046CDF84C8031
:101F8C00CDF850A0FEF7D6F94FF4E1332548264999
:101F9C00846080E80A000C23C4604361046184619E
:101FAC00C461FFF765FD3846FFF7F2F952461F4949
:101FBC003046FEF7E1FA3046FEF778FA214628461D
:101FCC00FFF758FC28465146FFF754FC2B68174C7A
:101FDC00174DC3F834B0C3F838B02B78092B35D96A
:101FEC003046FEF763FA2368124A9BB2138063688B
:101FFC00114A9BB21380A368104A9BB213801FE056
:10200C000010024000100140500100200008014067
:10201C00000C0140FC000020002C01404800002076
:10202C0000240140780000200038014040010020CD
:10203C0030000020940100204200002044000020C9
:10204C00E368054A9BB2138000232B70FFF776FDE3
:10205C00FFF706FEC1E700BF900100200268044BA9
:10206C009A4204D1034B1A685A689A68DB68704725
:10207C0000240140400100200368B3F1804F29D1B6
:10208C00154B1B78012B04D1144A138801339BB2D6
:10209C001380134A1378092B9CBF01331370114A18
:1020AC0013889BB2B3F57A7F12D8138801339BB295
:1020BC0013800D4A1378032B0CD141F288300B4955
:1020CC000B8883428DBF002301330B801370704744
:1020DC0000231380704700BF34000020360000201E
:1020EC0030000020380000200800002032000020C2
:1020FC00704700000E4B82B09A6942F001029A615F
:10210C009A6902F001020092009ADA6942F0805258
:10211C00DA61DB69074A03F080530193019B536832
:10212C0023F0E06343F00073536002B0704700BFCC
:10213C00001002400000014030B5054687B0102267
:10214C00002102A800F070F92A68214B9A423CD178
:10215C0003F56C439A691F4842F400729A619A69BC
:10216C0002A902F400720092009A9A691A4C42F089
:10217C0004029A619B6903F004030193019B0F23F2
:10218C00029303230393FEF793FC8022E2604FF447
:10219C00007222614FF40062104B626123602022B6
:1021AC00002320466360A360A261E361FEF77EFB1F
:1021BC0008B1FFF79DFF00222C62122011466562C8
:1021CC00FEF71EFB1220FEF74FFB07B030BD00BF21
:1021DC000024014000080140B80000200800024023
:1021EC0007B50368134A93420CD1134B9A6942F416
:1021FC0000629A619B6903F400630093009B03B037
:10220C005DF804FBB3F1804FF9D103F50433DA69BF
:10221C001C2042F00102DA610022DB69114603F056
:10222C0001030193019BFEF7EBFA1C20FEF71CFB4C
:10223C00E5E700BF002C01400010024010B5044639
:10224C0086B01022002102A800F0EEF822680D4B97
:10225C009A4214D103F564439A6902A942F004022C
:10226C009A619B69084803F004030193019B4FF4A6
:10227C0040730293022303930593FEF719FC06B0F7
:10228C0010BD00BF002C01400008014010B50446F1
:10229C0086B01022002102A800F0C6F82268194B63
:1022AC009A422DD103F558439A6902A942F480420F
:1022BC009A619A69144802F480420092009A9A69D1
:1022CC0042F008029A619B6903F008030193019B99
:1022DC00402302930223039303230593FEF7E8FBA9
:1022EC0080230293002302A9074803930493FEF76B
:1022FC00DFFB064A536843F0E06343F0040353608A
:10230C0006B010BD00380140000C01400000014037
:10231C007047FEE7FEE7FEE7FEE770477047704741
:10232C00FDF744BF0148FEF72FBB00BFB8000020EB
:10233C000148FDF77BBF00BF480000200148FFF7B4
:10234C00F0B800BF500100200F4B1A6842F0010298
:10235C001A6059680D4A0A405A601A6822F0847251
:10236C0022F480321A601A6822F480221A605A68A9
:10237C0022F4FE025A604FF41F029A604FF0006282
:10238C00034B9A60704700BF001002400000FFF83A
:10239C0000ED00E0002103E00B4B5B58435004318F
:1023AC000A480B4B42189A42F6D30A4A02E0002321
:1023BC0042F8043B084B9A42F9D3FFF7C5FF00F0F3
:1023CC000FF8FFF7A9FC70478C24000800000020D0
:1023DC00100000201000002098010020FEE70000F3
:1023EC0070B500250C4E0D4CA41BA410A54209D1B0
:1023FC0000F022F800250A4E0A4CA41BA410A5429A
:10240C0005D170BD56F8253098470135EEE756F8E2
:10241C00253098470135F2E784240008842400080D
:10242C00842400088824000803460244934200D107
:10243C00704703F8011BF9E7F8B500BFF8BC08BCFE
:10244C009E467047F8B500BFF8BC08BC9E46704766
:10245C0002030405060708090A0B0C0D0E0F1010D9
:10246C000000000000000000010203040607080938
:08247C0000000000010203044E
:04248400310100081A
:042488000D0100083A
:10248C0001000000100000000300000000A24A043C
:04000005080023A12B
:00000001FF
