:020000040800F2
:1000000000500020A91400083D1400083F14000807
:1000100041140008431400084514000800000000C3
:10002000000000000000000000000000471400086D
:1000300049140008000000004B1400084D1400088B
:10004000F1140008F1140008F1140008F11400087C
:10005000F1140008F1140008F1140008F11400086C
:10006000F1140008F1140008F1140008F11400085C
:10007000F1140008F1140008F1140008F11400084C
:10008000F1140008F1140008F1140008F11400083C
:10009000F1140008F1140008F1140008F11400082C
:1000A000F1140008F1140008F1140008F11400081C
:1000B00051140008F1140008F1140008F1140008AC
:1000C000F1140008F1140008F1140008F1140008FC
:1000D000F1140008F1140008F1140008F1140008EC
:1000E000F1140008F1140008F114000800000000E9
:1000F0000000000000000000000000000000000000
:0C01000000000000000000005FF808F1A3
:10010C0010B5054C237833B9044B13B10448AFF345
:10011C0000800123237010BD10000020000000009F
:10012C004C15000808B5034B1BB103490348AFF34A
:10013C00008008BD00000000140000204C150008D1
:10014C0038B50E4B054618784FF47A73B3FBF0F3C1
:10015C000B4A1068B0FBF3F000F08CF8044658B969
:10016C000F2D09D8024629464FF0FF3000F042F817
:10017C00044B20461D6038BD012038BD0000002016
:10018C000C00002004000020074A08B51368032067
:10019C0043F01003136000F01BF80020FFF7D0FFB2
:1001AC0001F0CEF8002008BD00200240034A044BA9
:1001BC0011681B780B441360704700BF300000209F
:1001CC0000000020014B1868704700BF3000002071
:1001DC00074A0002D36800F4E06023F4E0631B04D8
:1001EC001B0C43F0BF6343F400330343D3607047ED
:1001FC0000ED00E0174B30B5DC68C4F30224C4F109
:10020C000703251D042B28BF0423062D4FF00105E1
:10021C0098BF002405FA03F303F1FF3388BF033CB6
:10022C001940A14005FA04F4013C2240002842EA9E
:10023C0001024FEA0212AFBF00F16040064B00F022
:10024C000F00D2B2A5BFD2B200F561401A5480F8AB
:10025C00002330BD00ED00E014ED00E00123420965
:10026C0000F01F0003FA00F0014B43F82200704726
:10027C0000E100E00138B0F1807F0AD2F021064B9A
:10028C00064A586082F823100020072298601A60F2
:10029C0070470120704700BF10E000E000ED00E067
:1002AC002DE9F74F00221646654BDFF8A4E1DFF885
:1002BC00A4C14FF001080C6808FA06F808EA040417
:1002CC00A0457FD14D68122D00F0AF8000F28880E0
:1002DC00022D00F0A7807CD8002D00F08E80012D1F
:1002EC0000F09E804FF00F09FF2C93BF824606F161
:1002FC008045083DD0F800B092BFB500D0F804B0EE
:10030C00AD0009FA05F82BEA080802FA05F588BFD2
:10031C0000F1040A48EA0505CAF80050D1F804A017
:10032C001AF0805F4ED0474D464FAD6926F003085A
:10033C0045F00105BD61BD6908F1804805F0010576
:10034C00019508F5803806F0030B019D4FEA8B0BE5
:10035C00D8F8085009FA0BF925EA09093A4DA842D0
:10036C0068D005F58065A84266D005F58065A84281
:10037C0064D005F58065A8420CBF0325042505FA59
:10038C000BF545EA0905C8F808501D681AF4803FBA
:10039C0014BF2543A5431D605D681AF4003F14BFCC
:1003AC002543A5435D609D681AF4801F14BF254347
:1003BC00A5439D60DD681AF4001F14BF2C4325EA89
:1003CC000404DC600136102E7FF473AF03B0BDE87B
:1003DC00F08F032D22D0112D84D1CA68043281E70D
:1003EC001A4FBD4209D012D8DFF86C904D4504D09D
:1003FC0009F580394D457FF475AF8A68C2B1012A81
:10040C000CBFC0F81080C0F8148008226AE775454C
:10041C00F3D06545F1D0DFF84490EBE7002261E7BB
:10042C00CA685FE7CA6808325CE7CA680C3259E7E9
:10043C00042257E70025A2E70125A0E702259EE745
:10044C00000401400010024000080140000021108F
:10045C0000003110000032100000111000002210BA
:10046C000AB1016170470904FBE7C3685940C160D8
:10047C007047000003682DE9F341DB07054610D4F3
:10048C002B689F075ED42B68190700F195802B68A9
:10049C005A0700F1BF80EA69002A40F02D81002044
:1004AC0014E0904C636803F00C03042B07D06368D2
:1004BC0003F00C03082B0CD16368DE0309D5236809
:1004CC009C03DDD56B68002BDAD1012002B0BDE8AE
:1004DC00F0816B68B3F5803F10D1236843F480330F
:1004EC002360FFF76FFE064623689803C8D4FFF716
:1004FC0069FE801B6428F7D90320E7E79BB92368C2
:10050C0023F480332360236823F480232360FFF7D4
:10051C0059FE064623689903B2D5FFF753FE801B9C
:10052C006428F7D9E8E7B3F5A02F236803D143F487
:10053C0080232360D1E723F480332360236823F4E2
:10054C008023CDE7674C636813F00C0F07D063680A
:10055C0003F00C03082B10D16368DA030DD4236865
:10056C009B0702D52B69012BAFD123686A6923F055
:10057C00F80343EAC203236085E72A695A4B6AB140
:10058C0001221A60FFF71EFE064623689F07ECD473
:10059C00FFF718FE801B0228F7D9ADE71A60FFF7AA
:1005AC0011FE0646236898077FF56DAFFFF70AFE2C
:1005BC00801B0228F6D99FE7AA694A4C4B4BDAB14B
:1005CC0001221A60FFF7FEFD0646636A9B070DD5F4
:1005DC004FF4FA52464B1B68B3FBF2F3019300BF86
:1005EC00019B5A1E0192002BF9D150E7FFF7EAFD4F
:1005FC00801B0228E9D97FE71A60FFF7E3FD064666
:10060C00636A9F077FF543AFFFF7DCFD801B022871
:10061C00F6D971E7334CE369D80024D40127E36998
:10062C0043F08053E361E36903F080530093009B34
:10063C00304E3368D90518D5EB68012B26D1236AC7
:10064C0043F001032362FFF7BDFD41F2883680467B
:10065C00236A9B073FD5002F3FF41DAFE36923F0BE
:10066C008053E36117E70027E2E7336843F48073B4
:10067C003360FFF7A7FD80463368DA05DCD4FFF75B
:10068C00A1FDA0EB08006428F6D935E7ABB9236AC5
:10069C0041F2883823F001032362236A23F0040318
:1006AC002362FFF78FFD0646236A9807D3D5FFF721
:1006BC0089FD801B4045F7D91EE7052B236A03D122
:1006CC0043F004032362BAE723F001032362236A95
:1006DC0023F00403B6E7FFF775FDA0EB0800B0426A
:1006EC00B6D909E7001002400000424280044242A1
:1006FC000C00002000700040224C636803F00C03D7
:10070C00082B3FF4E2AE00231F4E022A33602BD19C
:10071C00FFF758FD0746236899011FD42B6AB3F5E0
:10072C00803F05D16268A96822F400320A436260F6
:10073C00696A62680B4322F47412134363600123E9
:10074C003360FFF73FFD054623689A013FF5A7AEDE
:10075C00FFF738FD401B0228F6D9CDE6FFF732FD36
:10076C00C01B0228D7D9C7E6FFF72CFD0546236826
:10077C009B017FF594AEFFF725FD401B0228F6D9AF
:10078C00BAE600BF001002406000424230B5194B7F
:10079C0087B002AC03F1100522461868596808337B
:1007AC0003C2AB421446F7D101238DF80430022367
:1007BC0011498DF805304B6803F00C02082A17D14B
:1007CC00C3F3834206A80244DB0312F8102C0CD5A9
:1007DC004B680A48C3F34043504306AA134413F82A
:1007EC00143CB0FBF3F007B030BD05485043FAE7BA
:1007FC000248F8E7641500080010024000127A0065
:10080C0000093D00544A2DE9F0411368054603F0F8
:10081C0007038B420E462AD329688C0734D4CA07A7
:10082C0047D44D4A136803F007039E42C0F0828000
:10083C002A684A4C12F0040F40F08780130706D543
:10084C0063682A6923F4605343EAC2036360FFF7C9
:10085C009DFF6368424AC3F30313D35CD840414BFA
:10086C0018600020FFF76CFC0020BDE8F0811368D5
:10087C0023F007030B431360136803F0070399423B
:10088C00CAD00120BDE8F081344B11F0040F1EBF1B
:10089C005A6842F4E0625A60080742BF5A6842F450
:1008AC0060525A605A68A86822F0F00202435A60FB
:1008BC00B5E76A68294C012A23681CD113F4003F60
:1008CC00DFD0636841F2883823F00303134363607D
:1008DC00FFF778FC6B680746012B14D1636803F0B3
:1008EC000C03042B9DD0FFF76DFCC01B4045F5D9C4
:1008FC000320BDE8F081022A02D113F0007FDFE76C
:10090C0013F0020FDCE7022B0FD1636803F00C032A
:10091C00082B86D0FFF756FCC01B4045F5D9E7E7FE
:10092C00FFF750FCC01B4045E2D8636813F00C0F76
:10093C00F6D176E7136823F007033343136013688B
:10094C0003F007039E429CD172E76368E96823F4C5
:10095C00E0630B43636071E700200240001002402B
:10096C00741500080C000020036A70B523F0010315
:10097C000362036A446882690D6822F073022A4399
:10098C008D6823F002032B430A4DA8420BD1CD688E
:10099C0023F008032B438E694D6924F440743543CE
:1009AC0023F004032C43446082614A68426303626F
:1009BC0070BD00BF002C0140036A70B523F4807336
:1009CC000362036A4468C2690D6822F073022A4309
:1009DC008D6823F4007343EA05230B4DA8420DD117
:1009EC00CD6823F4006343EA05238E694D6924F432
:1009FC004054354323F4806344EA05144460C261D7
:100A0C004A68C263036270BD002C0140036A30B5B2
:100A1C0023F480530362036A4468C2690D6822F4AC
:100A2C00E64242EA05228D6823F4005343EA05337B
:100A3C00064DA84202BF4D6924F4804444EA851453
:100A4C004460C2614A680264036230BD002C0140FC
:100A5C0003680020DA6842F00102DA601A6842F09A
:100A6C0001021A607047704790F83C3070B5012B4A
:100A7C004FF002031CD0012280F83D30036880F84F
:100A8C003C209A6822F47F4222F077029A600A682E
:100A9C00402A79D019D8102A00F093800AD8002A5D
:100AAC0000F08980012380F83D30002380F83C3031
:100ABC00184670BD202A00F08A80302AF2D19A683C
:100ACC0022F0700242F0370236E0702A36D01BD882
:100ADC00502A42D0602AE5D11C6A4D6824F01004DB
:100AEC00CE681C6299691A6A21F4704122F0A00246
:100AFC0042EA051241EA063199611A629A6822F0BB
:100B0C00700242F0670217E0B2F5805F11D0B2F5C7
:100B1C00005FC7D18A684D689C68C9682A4324F471
:100B2C007F4442EA012222439A609A6842F480424E
:100B3C0002E09A6822F007029A60B3E78A684D686F
:100B4C009C68C9682A4324F47F4442EA0122224368
:100B5C009A609A6842F07702EEE74C68CE68196AA0
:100B6C001D6A21F00A0125F001051D629A692143D5
:100B7C0022F0F00242EA06129A6119629A6822F097
:100B8C00700242F05702D7E74C68CE68196A1D6AAA
:100B9C0021F00A0125F001051D629A69214322F01A
:100BAC00F00242EA06129A6119629A6822F0700207
:100BBC0042F04702C0E79A6822F0700242F0070246
:100BCC00BAE79A6822F0700242F01702B4E79A680A
:100BDC0022F0700242F02702AEE770477047704770
:100BEC007047036810B51A69044691070ED5DA6888
:100BFC0092070BD56FF002021A6101229B690277F2
:100C0C009B0777D0FFF7EAFF0023237723681A6945
:100C1C00500710D5DA6851070DD56FF004021A6130
:100C2C0002229B69227713F4407F204668D0FFF79D
:100C3C00D5FF0023237723681A6912070FD5DA68CA
:100C4C0010070CD56FF008021A610422DB692277B9
:100C5C00990720465AD0FFF7C1FF0023237723685A
:100C6C001A69D20610D5DA68D0060DD56FF01002CD
:100C7C001A610822DB69227713F4407F20464BD09F
:100C8C00FFF7ACFF0023237723681A69D10708D537
:100C9C00DA68D20705D56FF0010220461A6100F020
:100CAC003DFB23681A69100608D5DA68110605D5CC
:100CBC006FF0800220461A6100F09BF923681A69D4
:100CCC00520608D5DA68500605D56FF0400220466A
:100CDC001A61FFF785FF23681A69910622D5DA6835
:100CEC0092061FD56FF020022046BDE810401A6115
:100CFC0000F07EB9FFF771FF2046FFF770FF83E726
:100D0C00FFF76BFF2046FFF76AFF92E7FFF765FFDF
:100D1C002046FFF764FFA0E7FFF75FFF2046FFF7D1
:100D2C005EFFAFE710BD00001A4A036890420AD07C
:100D3C00B0F1804F07D0A2F59432904203D002F567
:100D4C008062904215D14A6823F070031343114A14
:100D5C0090420AD0B0F1804F07D0A2F59432904265
:100D6C0003D002F58062904203D1CA6823F4407329
:100D7C0013434A6923F08003134303608B68C362F7
:100D8C000B688362034B984204BF0B690363012316
:100D9C0043617047002C014010B50446A0B190F897
:100DAC003D3003F0FF021BB980F83C2000F0EAFA5A
:100DBC000223206884F83D30211DFFF7B5FF012385
:100DCC00002084F83D3010BD012010BD10B5044644
:100DDC00A0B190F83D3003F0FF021BB980F83C2025
:100DEC00FFF741FE0223206884F83D30211DFFF7F8
:100DFC009BFF0123002084F83D3010BD012010BD65
:100E0C00036A70B523F010030362036A44688269B5
:100E1C000D6822F4E64242EA05228D6823F0200395
:100E2C0043EA05130B4DA8420DD1CD6823F0800386
:100E3C0043EA05138E694D6924F44064354323F06D
:100E4C00400344EA8504446082614A688263036219
:100E5C0070BD00BF002C014038B590F83C30044602
:100E6C00012B4FF0020025D0012384F83D0084F8BB
:100E7C003C300C2A18D8DFE802F0071717171E179A
:100E8C0017172F17171740002068FFF76DFD236801
:100E9C0009699A6942F008029A619A6922F004027F
:100EAC009A619A690A439A610123002084F83D30C3
:100EBC0084F83C0038BD2068FFF7A2FF236809695D
:100ECC009A6942F400629A619A6922F480629A618A
:100EDC009A6942EA0122E6E72068FFF76DFD236874
:100EEC000969DA6942F00802DA61DA6922F004026F
:100EFC00DA61DA690A43DA61D6E72068FFF786FD22
:100F0C0023680969DA6942F40062DA61DA6922F469
:100F1C008062DA61DA6942EA0122ECE710B5012459
:100F2C00036A8C4023EA04030362036A8A401A436F
:100F3C00026210BD10B5044601220068FFF7EEFFF7
:100F4C002368064A0020934202BF5A6C42F40042C6
:100F5C005A641A6842F001021A6010BD002C01405C
:100F6C0090F83C30012B1FD0CB688A6823F4407377
:100F7C0013434A6823F4806313430A6823F4006321
:100F8C0013430A6923F4805313434A6923F400532F
:100F9C0013438A6923F440431343026853640023C8
:100FAC0080F83C30184670470220704790F83C306F
:100FBC0010B5012B4FF0020318D080F83D300368B8
:100FCC000C685A68496822F070025A605A682243C9
:100FDC005A609A6822F080029A609A680A439A6072
:100FEC00012380F83D30002380F83C30184610BDBA
:100FFC007047704710B590B02822002106A800F069
:10100C0097FA0021142201A800F092FA4FF48033D1
:10101C000122022407930E934FF4E01306A80692C4
:10102C000A920F930D94FFF725FA0F234FF4806269
:10103C0001930023214601A8029403930492059383
:10104C00FFF7E0FB10B010BD08B52B4B1B68042B51
:10105C0050D8DFE803F003173139410001224FF477
:10106C0080512648FFF7FCF900224FF40051234829
:10107C00FFF7F6F901224FF480612048FFF7F0F9F1
:10108C00002212E000224FF480511C48FFF7E8F9CF
:10109C0001224FF400511948FFF7E2F900224FF4F6
:1010AC0080611648FFF7DCF90122BDE808404FF4D7
:1010BC0000611248FFF7D4B901224FF480510F4858
:1010CC00FFF7CEF90022E4E700224FF480510B48E1
:1010DC00FFF7C6F90122C8E700224FF480510748F8
:1010EC00FFF7BEF900224FF400510448FFF7B8F99E
:1010FC000022C0E708BD00BF08000020000C014022
:10110C0080B598B0FFF740F8FFF774FF102200216C
:10111C0011A800F00DFA794B00249A6901274FF4BD
:10112C000056022542F010029A619A694FF4005160
:10113C0002F010020092009A9A69714842F0200263
:10114C009A619A6940F60F6802F020020192019AA6
:10115C009A694FF4805942F008029A619A6902F038
:10116C0008020292029A9A6942F004029A619B69FF
:10117C00002203F004030393039BFFF771F9002291
:10118C004FF470515F48FFF76BF911A95C48119649
:10119C00129713941495FFF783F84FF4705311A919
:1011AC0058481193129713941495FFF779F8214628
:1011BC00102206A800F0BCF921461C220AA8524DA8
:1011CC000494059400F0B4F91C22214611A800F0F7
:1011DC00AFF94E4B284685E88800AC602C616C61F9
:1011EC00AC61C5F80C80FFF7D7FD06A92846CDF8F1
:1011FC001890FFF739FC2846FFF7E8FD04A92846AC
:10120C0004940594FFF7D2FE602322460AA92846CF
:10121C000A930B940C940D940E940F941094FFF766
:10122C001BFE04220AA92846FFF716FE11A9284620
:10123C001194129413941494159416961794FFF712
:10124C008FFE284600F0CCF82146102211A800F0A1
:10125C006FF948F69F434FF080422D4E0A9430466A
:10126C0086E80C00B460F7603461B4610B94FFF74E
:10127C0093FD11A93046CDF84490FFF7F5FB0AA970
:10128C0030460A940B94FFF791FE3046FFF7E0FBD3
:10129C002146204C28462646FFF74CFE04212846C2
:1012AC00FFF748FE2B68164FC3F83480C3F838801C
:1012BC00FFF7CAFE23889BB2B3F57A7FF8D30025DB
:1012CC004FF4005138462580FFF7CFF8124B1A68BF
:1012DC0022B901221A6000233380E9E7012A01D1E7
:1012EC000222F7E7022A01D10322F3E7032A01D1F4
:1012FC000422EFE7042A08BF1D60ECE7001002404F
:10130C0000100140000C014034000020002C014072
:10131C00740000202C000020080000200368B3F1AA
:10132C00804F09D1054A13889BB2B3F57A7F9FBFD2
:10133C00138801339BB21380704700BF2C00002030
:10134C000E4B82B09A6942F001029A619A6902F0DE
:10135C0001020092009ADA6942F08052DA61DB698C
:10136C00074A03F080530193019B536823F0E06319
:10137C0043F00073536002B0704700BF001002408E
:10138C000000014007B50368134A93420CD1134B7C
:10139C009A6942F400629A619B6903F400630093BA
:1013AC00009B03B05DF804FBB3F1804FF9D103F55A
:1013BC000433DA691C2042F00102DA610022DB6995
:1013CC00114603F001030193019BFEF713FF1C2050
:1013DC00FEF744FFE5E700BF002C0140001002407F
:1013EC0010B5044686B01022002102A800F0A0F827
:1013FC0022680D4B9A4214D103F564439A6902A9F1
:10140C0042F004029A619B69084803F004030193BB
:10141C00019B4FF440730293022303930593FEF751
:10142C003FFF06B010BD00BF002C0140000801407A
:10143C007047FEE7FEE7FEE7FEE770477047704730
:10144C00FEF7B4BE0148FFF7CCBB00BF7400002010
:10145C000F4B1A6842F001021A6059680D4A0A4093
:10146C005A601A6822F0847222F480321A601A6868
:10147C0022F480221A605A6822F4FE025A604FF459
:10148C001F029A604FF00062034B9A60704700BFD6
:10149C00001002400000FFF800ED00E0002103E026
:1014AC000B4B5B58435004310A480B4B42189A4281
:1014BC00F6D30A4A02E0002342F8043B084B9A4256
:1014CC00F9D3FFF7C5FF00F00FF8FFF719FE7047CF
:1014DC008C150008000000201000002010000020D7
:1014EC00B4000020FEE7000070B500250C4E0D4C3A
:1014FC00A41BA410A54209D100F022F800250A4E25
:10150C000A4CA41BA410A54205D170BD56F8253079
:10151C0098470135EEE756F8253098470135F2E744
:10152C008415000884150008841500088815000827
:10153C0003460244934200D1704703F8011BF9E7BC
:10154C00F8B500BFF8BC08BC9E467047F8B500BFA4
:08155C00F8BC08BC9E46704774
:1015640002030405060708090A0B0C0D0E0F1010E0
:10157400000000000000000001020304060708093F
:041584003101000829
:041588000D01000849
:10158C0001000000100000000400000000A24A044A
:04000005080014A932
:00000001FF
